{
  "_format": "hh-sol-artifact-1",
  "contractName": "Ballot",
  "sourceName": "contracts/Ballot.sol",
  "abi": [
    {
      "inputs": [
        {
          "internalType": "string[]",
          "name": "propsalName",
          "type": "string[]"
        }
      ],
      "stateMutability": "nonpayable",
      "type": "constructor"
    },
    {
      "inputs": [],
      "name": "_winingProposal",
      "outputs": [],
      "stateMutability": "nonpayable",
      "type": "function"
    },
    {
      "inputs": [],
      "name": "chairperson",
      "outputs": [
        {
          "internalType": "address",
          "name": "",
          "type": "address"
        }
      ],
      "stateMutability": "view",
      "type": "function"
    },
    {
      "inputs": [
        {
          "internalType": "address",
          "name": "voter",
          "type": "address"
        }
      ],
      "name": "rightToVote",
      "outputs": [],
      "stateMutability": "nonpayable",
      "type": "function"
    },
    {
      "inputs": [
        {
          "internalType": "uint256",
          "name": "proposalIndex",
          "type": "uint256"
        }
      ],
      "name": "vote",
      "outputs": [],
      "stateMutability": "nonpayable",
      "type": "function"
    },
    {
      "inputs": [],
      "name": "winner",
      "outputs": [
        {
          "internalType": "string[]",
          "name": "",
          "type": "string[]"
        }
      ],
      "stateMutability": "view",
      "type": "function"
    },
    {
      "inputs": [
        {
          "internalType": "uint256",
          "name": "",
          "type": "uint256"
        }
      ],
      "name": "winners",
      "outputs": [
        {
          "internalType": "string",
          "name": "",
          "type": "string"
        }
      ],
      "stateMutability": "view",
      "type": "function"
    }
  ],
  "bytecode": "0x60806040523480156200001157600080fd5b50604051620016d5380380620016d583398181016040528101906200003791906200032f565b33600260006101000a81548173ffffffffffffffffffffffffffffffffffffffff021916908373ffffffffffffffffffffffffffffffffffffffff16021790555060005b8151811015620001485760006040518060400160405280848481518110620000cc577f4e487b7100000000000000000000000000000000000000000000000000000000600052603260045260246000fd5b602002602001015181526020016000815250908060018154018082558091505060019003906000526020600020906002020160009091909190915060008201518160000190805190602001906200012592919062000150565b5060208201518160010155505080806200013f90620004ae565b9150506200007b565b50506200059a565b8280546200015e9062000442565b90600052602060002090601f016020900481019282620001825760008555620001ce565b82601f106200019d57805160ff1916838001178555620001ce565b82800160010185558215620001ce579182015b82811115620001cd578251825591602001919060010190620001b0565b5b509050620001dd9190620001e1565b5090565b5b80821115620001fc576000816000905550600101620001e2565b5090565b60006200021762000211846200039d565b62000374565b905080838252602082019050828560208602820111156200023757600080fd5b60005b858110156200028657815167ffffffffffffffff8111156200025b57600080fd5b8086016200026a898262000302565b855260208501945060208401935050506001810190506200023a565b5050509392505050565b6000620002a7620002a184620003cc565b62000374565b905082815260208101848484011115620002c057600080fd5b620002cd8482856200040c565b509392505050565b600082601f830112620002e757600080fd5b8151620002f984826020860162000200565b91505092915050565b600082601f8301126200031457600080fd5b81516200032684826020860162000290565b91505092915050565b6000602082840312156200034257600080fd5b600082015167ffffffffffffffff8111156200035d57600080fd5b6200036b84828501620002d5565b91505092915050565b60006200038062000393565b90506200038e828262000478565b919050565b6000604051905090565b600067ffffffffffffffff821115620003bb57620003ba6200055a565b5b602082029050602081019050919050565b600067ffffffffffffffff821115620003ea57620003e96200055a565b5b620003f58262000589565b9050602081019050919050565b6000819050919050565b60005b838110156200042c5780820151818401526020810190506200040f565b838111156200043c576000848401525b50505050565b600060028204905060018216806200045b57607f821691505b602082108114156200047257620004716200052b565b5b50919050565b620004838262000589565b810181811067ffffffffffffffff82111715620004a557620004a46200055a565b5b80604052505050565b6000620004bb8262000402565b91507fffffffffffffffffffffffffffffffffffffffffffffffffffffffffffffffff821415620004f157620004f0620004fc565b5b600182019050919050565b7f4e487b7100000000000000000000000000000000000000000000000000000000600052601160045260246000fd5b7f4e487b7100000000000000000000000000000000000000000000000000000000600052602260045260246000fd5b7f4e487b7100000000000000000000000000000000000000000000000000000000600052604160045260246000fd5b6000601f19601f8301169050919050565b61112b80620005aa6000396000f3fe608060405234801561001057600080fd5b50600436106100625760003560e01c80630121b93f1461006757806323d198fb146100835780632e4176cf1461009f57806389602c0c146100bd578063a2fb1175146100c7578063dfbf53ae146100f7575b600080fd5b610081600480360381019061007c9190610a4c565b610115565b005b61009d60048036038101906100989190610a23565b61033b565b005b6100a7610548565b6040516100b49190610c51565b60405180910390f35b6100c561056e565b005b6100e160048036038101906100dc9190610a4c565b6107ca565b6040516100ee9190610c8e565b60405180910390f35b6100ff610876565b60405161010c9190610c6c565b60405180910390f35b600160003373ffffffffffffffffffffffffffffffffffffffff1673ffffffffffffffffffffffffffffffffffffffff16815260200190815260200160002060000160009054906101000a900460ff166101a4576040517f08c379a000000000000000000000000000000000000000000000000000000000815260040161019b90610cb0565b60405180910390fd5b600160003373ffffffffffffffffffffffffffffffffffffffff1673ffffffffffffffffffffffffffffffffffffffff16815260200190815260200160002060000160019054906101000a900460ff1615610234576040517f08c379a000000000000000000000000000000000000000000000000000000000815260040161022b90610d50565b60405180910390fd5b600160008281548110610270577f4e487b7100000000000000000000000000000000000000000000000000000000600052603260045260246000fd5b906000526020600020906002020160010160008282546102909190610dd6565b9250508190555060018060003373ffffffffffffffffffffffffffffffffffffffff1673ffffffffffffffffffffffffffffffffffffffff16815260200190815260200160002060000160016101000a81548160ff02191690831515021790555080600160003373ffffffffffffffffffffffffffffffffffffffff1673ffffffffffffffffffffffffffffffffffffffff1681526020019081526020016000206001018190555050565b600260009054906101000a900473ffffffffffffffffffffffffffffffffffffffff1673ffffffffffffffffffffffffffffffffffffffff163373ffffffffffffffffffffffffffffffffffffffff16146103cb576040517f08c379a00000000000000000000000000000000000000000000000000000000081526004016103c290610d10565b60405180910390fd5b600160008273ffffffffffffffffffffffffffffffffffffffff1673ffffffffffffffffffffffffffffffffffffffff16815260200190815260200160002060000160009054906101000a900460ff161561045b576040517f08c379a000000000000000000000000000000000000000000000000000000000815260040161045290610cd0565b60405180910390fd5b600160008273ffffffffffffffffffffffffffffffffffffffff1673ffffffffffffffffffffffffffffffffffffffff16815260200190815260200160002060000160019054906101000a900460ff16156104eb576040517f08c379a00000000000000000000000000000000000000000000000000000000081526004016104e290610cf0565b60405180910390fd5b60018060008373ffffffffffffffffffffffffffffffffffffffff1673ffffffffffffffffffffffffffffffffffffffff16815260200190815260200160002060000160006101000a81548160ff02191690831515021790555050565b600260009054906101000a900473ffffffffffffffffffffffffffffffffffffffff1681565b600260009054906101000a900473ffffffffffffffffffffffffffffffffffffffff1673ffffffffffffffffffffffffffffffffffffffff163373ffffffffffffffffffffffffffffffffffffffff16146105fe576040517f08c379a00000000000000000000000000000000000000000000000000000000081526004016105f590610d30565b60405180910390fd5b6000805b6000805490508110156106c45760008181548110610649577f4e487b7100000000000000000000000000000000000000000000000000000000600052603260045260246000fd5b9060005260206000209060020201600101548210156106b1576000818154811061069c577f4e487b7100000000000000000000000000000000000000000000000000000000600052603260045260246000fd5b90600052602060002090600202016001015491505b80806106bc90610ecd565b915050610602565b5060005b6000805490508110156107c6576000818154811061070f577f4e487b7100000000000000000000000000000000000000000000000000000000600052603260045260246000fd5b9060005260206000209060020201600101548214156107b357600360008281548110610764577f4e487b7100000000000000000000000000000000000000000000000000000000600052603260045260246000fd5b9060005260206000209060020201600001908060018154018082558091505060019003906000526020600020016000909190919091509080546107a690610e9b565b6107b192919061094f565b505b80806107be90610ecd565b9150506106c8565b5050565b600381815481106107da57600080fd5b9060005260206000200160009150905080546107f590610e9b565b80601f016020809104026020016040519081016040528092919081815260200182805461082190610e9b565b801561086e5780601f106108435761010080835404028352916020019161086e565b820191906000526020600020905b81548152906001019060200180831161085157829003601f168201915b505050505081565b60606003805480602002602001604051908101604052809291908181526020016000905b828210156109465783829060005260206000200180546108b990610e9b565b80601f01602080910402602001604051908101604052809291908181526020018280546108e590610e9b565b80156109325780601f1061090757610100808354040283529160200191610932565b820191906000526020600020905b81548152906001019060200180831161091557829003601f168201915b50505050508152602001906001019061089a565b50505050905090565b82805461095b90610e9b565b90600052602060002090601f01602090048101928261097d57600085556109cb565b82601f1061098e57805485556109cb565b828001600101855582156109cb57600052602060002091601f016020900482015b828111156109ca5782548255916001019190600101906109af565b5b5090506109d891906109dc565b5090565b5b808211156109f55760008160009055506001016109dd565b5090565b600081359050610a08816110c7565b92915050565b600081359050610a1d816110de565b92915050565b600060208284031215610a3557600080fd5b6000610a43848285016109f9565b91505092915050565b600060208284031215610a5e57600080fd5b6000610a6c84828501610a0e565b91505092915050565b6000610a818383610b0d565b905092915050565b610a9281610e2c565b82525050565b6000610aa382610d80565b610aad8185610da3565b935083602082028501610abf85610d70565b8060005b85811015610afb5784840389528151610adc8582610a75565b9450610ae783610d96565b925060208a01995050600181019050610ac3565b50829750879550505050505092915050565b6000610b1882610d8b565b610b228185610db4565b9350610b32818560208601610e68565b610b3b81610f74565b840191505092915050565b6000610b5182610d8b565b610b5b8185610dc5565b9350610b6b818560208601610e68565b610b7481610f74565b840191505092915050565b6000610b8c601e83610dc5565b9150610b9782610f85565b602082019050919050565b6000610baf602183610dc5565b9150610bba82610fae565b604082019050919050565b6000610bd2601783610dc5565b9150610bdd82610ffd565b602082019050919050565b6000610bf5602e83610dc5565b9150610c0082611026565b604082019050919050565b6000610c18601d83610dc5565b9150610c2382611075565b602082019050919050565b6000610c3b601683610dc5565b9150610c468261109e565b602082019050919050565b6000602082019050610c666000830184610a89565b92915050565b60006020820190508181036000830152610c868184610a98565b905092915050565b60006020820190508181036000830152610ca88184610b46565b905092915050565b60006020820190508181036000830152610cc981610b7f565b9050919050565b60006020820190508181036000830152610ce981610ba2565b9050919050565b60006020820190508181036000830152610d0981610bc5565b9050919050565b60006020820190508181036000830152610d2981610be8565b9050919050565b60006020820190508181036000830152610d4981610c0b565b9050919050565b60006020820190508181036000830152610d6981610c2e565b9050919050565b6000819050602082019050919050565b600081519050919050565b600081519050919050565b6000602082019050919050565b600082825260208201905092915050565b600082825260208201905092915050565b600082825260208201905092915050565b6000610de182610e5e565b9150610dec83610e5e565b9250827fffffffffffffffffffffffffffffffffffffffffffffffffffffffffffffffff03821115610e2157610e20610f16565b5b828201905092915050565b6000610e3782610e3e565b9050919050565b600073ffffffffffffffffffffffffffffffffffffffff82169050919050565b6000819050919050565b60005b83811015610e86578082015181840152602081019050610e6b565b83811115610e95576000848401525b50505050565b60006002820490506001821680610eb357607f821691505b60208210811415610ec757610ec6610f45565b5b50919050565b6000610ed882610e5e565b91507fffffffffffffffffffffffffffffffffffffffffffffffffffffffffffffffff821415610f0b57610f0a610f16565b5b600182019050919050565b7f4e487b7100000000000000000000000000000000000000000000000000000000600052601160045260246000fd5b7f4e487b7100000000000000000000000000000000000000000000000000000000600052602260045260246000fd5b6000601f19601f8301169050919050565b7f596f7520646f6e27742068617665206120726967687420746f20766f74650000600082015250565b7f566f74657220616c726561647920686173206120726967687420746f20766f7460008201527f6500000000000000000000000000000000000000000000000000000000000000602082015250565b7f566f7465722068617320616c726561647920766f746564000000000000000000600082015250565b7f596f7520646f6e277420686176652074686520617574686f7269747920746f2060008201527f6769766520746865207269676874000000000000000000000000000000000000602082015250565b7f596f752063616e6e6f742063616c6c207468652057696e6e6572202121000000600082015250565b7f596f75206861766520616c726561647920766f74656400000000000000000000600082015250565b6110d081610e2c565b81146110db57600080fd5b50565b6110e781610e5e565b81146110f257600080fd5b5056fea26469706673582212201d10333df03d55be071de5bee0c0c1cad9c22135b45f768d1c0efbabcedb1d8164736f6c63430008040033",
  "linkReferences": {},
  "deployedLinkReferences": {}
}